{
  "block_hash": "0000000000000000001276a6cacb5f098ce8a8be2baea5374fd65bad0132814a",
  "block_height": 581601,
  "block_index": 6,
  "hash": "ff78a44f6317ef487637e704977a3415135ffbac96f90065d364863bc5fb989b",
  "hex": "0200000000010112c91e4fc22e2dd5c1fd99c66c109ac004552f5834c61290c6a2fcfa55817dcb0000000017160014204eb27f63baaae61e1252c0401e79b3b49d3ac4feffffff0342ede4580000000017a9146784f308a4a552d99436c0cfc7b1b68a45a9ec0987444d5f000000000017a914d2013155eba0015a6ede5f0b895281819ff0747b87505483000000000017a914fe7faf9f1026cc703cee0a8e3b46ebf2c7b387ab87024730440220526ef0372e257d2186dd2c820fb8d383fa0890ce0bb2eff7bd05e4771822c94f022046890ab592e82605b42152874cbb913127e5285bf91342b38f0f22f9d8c99e52012102ae102540aa4d4f93f61b630a0c517aa24554a48038fc1225160e448f86c24dd4dfdf0800",
  "addresses": [
    "3B8NnnVNdaja9kemzZfj5kfSRmK6hqocaQ",
    "3LqRFhXgV92fKTBNvY761fFz9Lp2gzBsDY",
    "3PV3fhqyn8HneYA3UAim2CRWhRKj5Maq1i",
    "3QtgX3ntvtkWjebA4i4vLyWvWAWAcpJS5d"
  ],
  "total": 1506250454,
  "fees": 37806,
  "size": 170,
  "preference": "high",
  "relayed_by": "5.35.248.52:8333",
  "confirmed": "2019-06-20T14:42:31Z",
  "received": "2019-06-20T14:42:08.486Z",
  "ver": 2,
  "lock_time": 581599,
  "double_spend": false,
  "vin_sz": 1,
  "vout_sz": 3,
  "confirmations": 5,
  "confidence": 1,
  "inputs": [
    {
      "prev_hash": "cb7d8155fafca2c69012c634582f5504c09a106cc699fdc1d52d2ec24f1ec912",
      "output_index": 0,
      "script": "160014204eb27f63baaae61e1252c0401e79b3b49d3ac4",
      "output_value": 1506288260,
      "sequence": 4294967294,
      "addresses": [
        "3PV3fhqyn8HneYA3UAim2CRWhRKj5Maq1i"
      ],
      "script_type": "pay-to-script-hash",
      "age": 581597,
      "witness": [
        "30440220526ef0372e257d2186dd2c820fb8d383fa0890ce0bb2eff7bd05e4771822c94f022046890ab592e82605b42152874cbb913127e5285bf91342b38f0f22f9d8c99e5201",
        "02ae102540aa4d4f93f61b630a0c517aa24554a48038fc1225160e448f86c24dd4"
      ]
    }
  ],
  "outputs": [
    {
      "value": 1491397954,
      "script": "a9146784f308a4a552d99436c0cfc7b1b68a45a9ec0987",
      "spent_by": "fa9e5d70b65bb9f0b7f17bfc1edbf85327a8c00c3f6ccd9c9676291c885a95b4",
      "addresses": [
        "3B8NnnVNdaja9kemzZfj5kfSRmK6hqocaQ"
      ],
      "script_type": "pay-to-script-hash"
    },
    {
      "value": 6245700,
      "script": "a914d2013155eba0015a6ede5f0b895281819ff0747b87",
      "spent_by": "9941ce4e20774dc5c011a9b3c008850503493bc54586b42bd5ed3adf6d411f9f",
      "addresses": [
        "3LqRFhXgV92fKTBNvY761fFz9Lp2gzBsDY"
      ],
      "script_type": "pay-to-script-hash"
    },
    {
      "value": 8606800,
      "script": "a914fe7faf9f1026cc703cee0a8e3b46ebf2c7b387ab87",
      "addresses": [
        "3QtgX3ntvtkWjebA4i4vLyWvWAWAcpJS5d"
      ],
      "script_type": "pay-to-script-hash"
    }
  ]
}
