{
    "hex": "01000000010000000000000000000000000000000000000000000000000000000000000000ffffffff4c035cdc190415a60b5d08fabe6d6d000000000000000000000000000000000000000000000000000001000000010201000000000000004ffffed1580000000d2f6e6f64655374726174756d2f00000000020000000000000000266a24aa21a9ede2f61c3f71d1defd3fa999dfa36953755c690689799962b48bebd836974e8cf900f90295000000001976a91443233685b212754308793029b80d965805bd8d7588ac00000000",
    "txid": "fc53aa8da1f14338c32e96fc3f5222807f5769be64ebd341ba82b2356d86fae2",
    "version": 1,
    "locktime": 0,
    "vin": [
        {
            "coinbase": "035cdc190415a60b5d08fabe6d6d000000000000000000000000000000000000000000000000000001000000010201000000000000004ffffed1580000000d2f6e6f64655374726174756d2f",
            "sequence": 0
        }
    ],
    "vout": [
        {
            "value": 0,
            "n": 0,
            "scriptPubKey": {
                "asm": "OP_RETURN aa21a9ede2f61c3f71d1defd3fa999dfa36953755c690689799962b48bebd836974e8cf9",
                "hex": "6a24aa21a9ede2f61c3f71d1defd3fa999dfa36953755c690689799962b48bebd836974e8cf9",
                "type": "nulldata"
            }
        },
        {
            "value": 25,
            "n": 1,
            "scriptPubKey": {
                "asm": "OP_DUP OP_HASH160 43233685b212754308793029b80d965805bd8d75 OP_EQUALVERIFY OP_CHECKSIG",
                "hex": "76a91443233685b212754308793029b80d965805bd8d7588ac",
                "reqSigs": 1,
                "type": "pubkeyhash",
                "addresses": [
                    "ME29gvWZcNWaD6JeUEfNXDTicTzMJ4cNMY"
                ]
            }
        }
    ],
    "blockhash": "0f03917d9dfac1d919fcbb2b8b93d5fce049bc3da13f64f5961e3713abbf29e2",
    "confirmations": 3,
    "time": 1561044500,
    "blocktime": 1561044500
}
